:100000000C9465000C948D000C948D000C948D0064
:100010000C948D000C948D000C948D000C948D002C
:100020000C948D000C948D000C948D000C940203A4
:100030000C948D000C9438020C946A020C948D0080
:100040000C948D000C948D000C948D000C948D00FC
:100050000C948D0000000002000000000000000071
:100060000504000700000000000000000000000080
:100070000000000001020408102040800102040872
:100080001020408001020408102040800102040872
:100090001020408002020202020202020404040450
:1000A0000404040403030303030303030101010124
:1000B0000101010100003B00380035003200000062
:1000C0003A003700340031009A0211241FBECFE5F8
:1000D000D8E0DEBFCDBF10E0A0E6B0E0E2E3F9E09B
:1000E00002C005900D92A837B107D9F721E0A8E723
:1000F000B0E001C01D92A532B207E1F710E0C5E6FD
:10010000D0E004C02197FE010E949104C436D107BB
:10011000C9F70E94F3020C9497040C94000080919C
:10012000780090917900059728F460E08091600054
:100130000C94310480917B0081110CC080917A0075
:10014000811108C090917C0090937B0084E6891B0C
:1001500080937A0080917B00882359F061E0809140
:1001600060000E94310480917B00815080937B006D
:10017000089580917A00882351F060E080916000BA
:100180000E94310480917A00815080937A00089512
:1001900080917E008A3020F48F5F80937E000895E6
:1001A00010927E0060917D0081E0682760937D0061
:1001B000809162000C94310461E0809162000E94A1
:1001C000F50361E0809160000E94F50326E040E8BD
:1001D00055E260E070E08FE790E00C94E50164E6A2
:1001E00070E080E090E00E94720388E10E94C40306
:1001F00090937900809378009C01A4E6B0E00E947F
:1002000082042FEF33E040E050E00E94600420932E
:100210007C000E94C8000C948F00FC01918D228DFF
:10022000892F90E0805C9F4F821B91098F739927E3
:100230000895FC01918D828D981731F0828DE80F21
:10024000F11D858D90E008958FEF9FEF0895FC01DB
:10025000918D828D981761F0A28DAE0FBF2FB11DC9
:100260005D968C91928D9F5F9F73928F90E0089521
:100270008FEF9FEF0895FC01538D448D252F30E0C3
:10028000842F90E0821B930B541710F0CF960895A3
:100290000197089580E992E0892B49F080E090E091
:1002A000892B29F00E94900281110C94000008957E
:1002B000FC01A48DA80FB92FB11DA35ABF4F2C91DB
:1002C000848D90E001968F739927848FA689B789D2
:1002D0002C93A089B1898C9182748C93938D848D99
:1002E000981306C00288F389E02D80818F7D80837A
:1002F0000895CF93DF93EC01888D8823B9F0AA8904
:10030000BB89E889F9898C9185FD03C0808186FDD0
:100310000DC00FB607FCF7CF8C9185FFF2CF80811F
:1003200085FFEDCFCE010E945801E9CFDF91CF913B
:100330000895EF92FF920F931F93CF93DF93EC01F9
:1003400081E0888F9B8D8C8D981319C0E889F9897D
:10035000808185FF14C09FB7F894EE89FF89608380
:10036000E889F9898081827480839FBF81E090E071
:10037000DF91CF911F910F91FF90EF900895F62E8E
:100380000B8D10E00F5F1F4F0F731127E02E8C8D28
:100390008E110CC00FB607FCFACFE889F98980816D
:1003A00085FFF5CFCE010E945801F1CFEB8DEC0F08
:1003B000FD2FF11DE35AFF4FF0829FB7F8940B8F8A
:1003C000EA89FB8980818062CFCFCF92DF92EF9262
:1003D000FF921F93CF93DF93EC016A017B01122FF1
:1003E00060E970ED83E090E0A70196010E9460044F
:1003F000215031094109510956954795379527955F
:10040000E889F98982E08083211580E1380798F036
:10041000E889F989108268E478EE81E090E0A7012C
:1004200096010E94600421503109410951095695F5
:10043000479537952795EC85FD853083EE85FF85BB
:100440002083188E1068EC89FD891083EA89FB8966
:10045000808188698083EA89FB8980818F7D8083A0
:10046000DF91CF911F91FF90EF90DF90CF90089593
:100470001F920F920FB60F9211242F938F939F9379
:10048000EF93FF93E0918F00F09190008081E091D5
:100490009500F091960082FD1BC09081809198009C
:1004A0008F5F8F7320919900821741F0E09198003F
:1004B000F0E0E158FF4F958F80939800FF91EF9106
:1004C0009F918F912F910F900FBE0F901F901895B5
:1004D0008081F4CF1F920F920FB60F9211242F93A9
:1004E0003F934F935F936F937F938F939F93AF93BC
:1004F000BF93EF93FF938FE790E00E945801FF9125
:10050000EF91BF91AF919F918F917F916F915F918B
:100510004F913F912F910F900FBE0F901F90189504
:100520008FE790E00E940D0121E0892B09F420E083
:10053000822F0895EFE7F0E01382128288EE93E0B5
:10054000A0E0B0E084839583A683B78389E690E03A
:100550009183808380E490E09587848729E230E06E
:10056000378726872BE230E0318B208B2AE230E080
:10057000338B228B958B848B8CE290E0978B868BD0
:10058000118E128E138E148E0895AF92BF92CF9259
:10059000DF92EF92FF920F931F93CF93DF936C0143
:1005A0007B018B01040F151FEB015E01AE18BF0824
:1005B000C017D10759F06991D601ED91FC910190D6
:1005C000F081E02DC6010995892B79F7C501DF91EE
:1005D000CF911F910F91FF90EF90DF90CF90BF9040
:1005E000AF90089508950E94AB030E94F2020E940A
:1005F000DC00CAE4D1E00E94EF002097E1F30E9402
:100600004A01F9CF1F920F920FB60F9211242F9328
:100610003F938F939F93AF93BF93809121019091CC
:100620002201A0912301B09124013091200120E307
:10063000230F2D3768F123EB230F4196A11DB11D28
:10064000209320018093210190932201A093230104
:10065000B093240180911C0190911D01A0911E0175
:10066000B0911F010196A11DB11D80931C019093B3
:100670001D01A0931E01B0931F01BF91AF919F91E7
:100680008F913F912F910F900FBE0F901F90189553
:100690004096A11DB11DD4CF3FB7F89480911C01A5
:1006A00090911D01A0911E01B0911F0122B708B6C3
:1006B00000FE05C02F3F19F00196A11DB11D3FBFDF
:1006C000BA2FA92F982F8827BC01CD01620F711D69
:1006D000811D911D46E0660F771F881F991F4A955F
:1006E000D1F708958F929F92AF92BF92CF92DF92EF
:1006F000EF92FF926B017C010E944C034B015C0165
:10070000C114D104E104F104E9F00E945F040E94E5
:100710004C03681979098A099B09683E7340810571
:10072000910570F321E0C21AD108E108F10888EEC2
:10073000880E83E0981EA11CB11CC114D104E104F1
:10074000F10429F7FF90EF90DF90CF90BF90AF902A
:100750009F908F900895789483B7836083BF83B709
:10076000886483BF89B7816089BF82E08EBD8FB501
:1007700081608FBD85B5846085BD85B5806485BD8C
:1007800083E886B91AB80895883020F0873108F4D4
:1007900087E188512091640090E4299F9001112401
:1007A0008770822B87B9369A3699FECF84B195B17E
:1007B0000895843059F028F4813099F0823089F01E
:1007C0000895853039F0873041F008958FB58F77DF
:1007D0008FBD08958FB58F7DFBCF85B58F7D85BD8E
:1007E000089583B78F7D83BF0895CF93DF9390E003
:1007F000FC01EC58FF4F24918C569F4FFC018491D3
:100800008823C9F090E0880F991FFC01E254FF4F44
:10081000A591B491FC01EC54FF4FC591D4916111A5
:100820000DC09FB7F8948C91209582238C9388817A
:10083000282328839FBFDF91CF910895623051F420
:100840009FB7F8943C91822F809583238C93E88105
:100850002E2BEFCF8FB7F894EC912E2B2C938FBFCC
:10086000EACF1F93CF93DF93282F30E0F901EC5AA2
:10087000FF4F8491F901EC58FF4FD491F901EC56E8
:10088000FF4FC491CC23A9F0162F81110E94D903E8
:10089000EC2FF0E0EE0FFF1FEC54FF4FA591B49149
:1008A0008FB7F894EC91111108C0D095DE23DC933A
:1008B0008FBFDF91CF911F910895DE2BF8CF089560
:1008C000A1E21A2EAA1BBB1BFD010DC0AA1FBB1F54
:1008D000EE1FFF1FA217B307E407F50720F0A21BC6
:1008E000B30BE40BF50B661F771F881F991F1A9433
:1008F00069F760957095809590959B01AC01BD015D
:10090000CF010895A29FB001B39FC001A39F700DB6
:10091000811D1124911DB29F700D811D1124911D07
:100920000895EE0FFF1F0590F491E02D0994F894BF
:02093000FFCFF7
:1009320009000B0001000000009901C5023B01798A
:08094200010D0127011901005C
:00000001FF
