:020000040800F2
:10000000002000209D060008650600086B06000819
:1000100000000000000000000000000000000000E0
:100020000000000000000000000000007106000851
:1000300000000000000000007B06000885060008A4
:10004000ED060008ED060008ED060008ED060008C4
:10005000ED060008ED060008ED060008ED060008B4
:10006000ED060008ED060008ED060008ED060008A4
:10007000ED060008ED060008ED060008ED06000894
:10008000ED060008ED06000800000000ED0600087F
:10009000ED060008ED060008ED060008ED06000874
:1000A000ED060008ED060008ED060008ED06000864
:1000B000ED06000800000000ED060008000000004A
:1000C00010B5064C2378002B07D1054B002B02D02E
:1000D000044800E000BF0123237010BD0C00002085
:1000E00000000000EC1C0008044B10B5002B03D0EE
:1000F0000349044800E000BF10BDC04600000000F6
:1001000010000020EC1C0008002243088B4274D32E
:1001100003098B425FD3030A8B4244D3030B8B4208
:1001200028D3030C8B420DD3FF22090212BA030C11
:100130008B4202D31212090265D0030B8B4219D3F2
:1001400000E0090AC30B8B4201D3CB03C01A524112
:10015000830B8B4201D38B03C01A5241430B8B425A
:1001600001D34B03C01A5241030B8B4201D30B0343
:10017000C01A5241C30A8B4201D3CB02C01A52416A
:10018000830A8B4201D38B02C01A5241430A8B422D
:1001900001D34B02C01A5241030A8B4201D30B0216
:1001A000C01A5241CDD2C3098B4201D3CB01C01A30
:1001B000524183098B4201D38B01C01A524143093A
:1001C0008B4201D34B01C01A524103098B4201D328
:1001D0000B01C01A5241C3088B4201D3CB00C01A95
:1001E000524183088B4201D38B00C01A524143080D
:1001F0008B4201D34B00C01A5241411A00D2014632
:10020000524110467047FFE701B5002000F006F8A4
:1002100002BDC0460029F7D076E770477047C04658
:1002200080B500AF204B1B88042B06D81F4B002243
:100230004021180001F0D2F833E01D4B1B78002B51
:100240000ED11C4B1B78002B0AD11B4B1A78184B74
:100250001A70174B1B786422D31ADAB2154B1A7036
:10026000134B1B78002B0CD0104B0122402118009F
:1002700001F0B4F80E4B1B78013BDAB20C4B1A704C
:100280000FE00C4B1B78002B0BD0084B00224021B9
:10029000180001F0A3F8074B1B78013BDAB2054BBD
:1002A0001A70BD4680BDC04668000020001400489A
:1002B0006C0000206D0000206A00002080B500AFB7
:1002C0000F4B1B785A1CD1B20D4A1170092B13D950
:1002D0000B4B00221A700B4B1B7801225340DAB2F1
:1002E000084B1A70074B1A78802359009023DB05BE
:1002F000180001F073F800E0C046BD4680BDC0465E
:100300006B0000206E00002080B500AF00F0F0F917
:1003100000F032F800F0D2F800F074F8642000F039
:100320004BFA114B180000F0ABFB0F4B6421180087
:1003300000F0FAFB0C4B180000F08EFC03009AB2A0
:100340000A4B1A80094B1B881A006423534308493F
:100350001800FFF7D9FE0300DAB2064B1A70FFF758
:10036000ADFFFFF75DFFD9E72800002068000020FF
:10037000FF0F00006A00002090B591B000AF10247C
:100380003B19180030231A00002101F0A7FC3B00A4
:10039000180010231A00002101F0A0FC21007B1896
:1003A00012221A607B180122DA607B1801225A613E
:1003B0007B1810221A617B1810229A617B18002288
:1003C0001A627B18180001F027F8031E01D000F014
:1003D000D9F83B0007221A603B0000225A603B001C
:1003E00000229A603B000022DA603B0000211800E6
:1003F00001F02CFB031E01D000F0C4F8C046BD463E
:1004000011B090BD80B584B000AF3B1D18000C2327
:100410001A00002101F062FC264B274A1A60254B86
:1004200000225A60234B00229A60224B0022DA609D
:10043000204B01221A611F4B04225A611D4B0022DE
:100440001A761C4B00225A761A4B00229A76194BC8
:100450000022DA76174BC222FF32DA61154B0022F6
:100460001A62144B242200219954124B01229A62E1
:10047000104B180000F0C4F9031E01D000F082F800
:100480003B1D04221A603B1D802252015A603B1D15
:10049000802252059A603A1D064B1100180000F0A8
:1004A000E7FB031E01D000F06DF8C046BD4604B066
:1004B00080BDC046280000200024014090B589B0CE
:1004C00000AF0C243B19180014231A00002101F07E
:1004D00005FC2A4B5A69294B802189020A435A613B
:1004E000264B5A6980239B021340BB60BB68234B99
:1004F0005A69224B8021C9030A435A611F4B5A692A
:100500008023DB0313407B607B68802359009023AA
:10051000DB050022180000F061FF194B002240218A
:10052000180000F05BFF3B19802252001A603B1953
:1005300001225A603B1900229A603B190022DA60BE
:100540003A199023DB051100180000F0D7FD2100B7
:100550007B1840221A607B1801225A607B18002207
:100560009A607B180022DA607B18054A1900100097
:1005700000F0C4FDC046BD4609B090BD0010024069
:100580000014004880B500AF72B6C046FEE7000018
:1005900080B582B000AF0F4B9A690E4B01210A4320
:1005A0009A610C4B9B69012213407B607B68094B6D
:1005B000DA69084B802149050A43DA61054BDA699B
:1005C00080235B0513403B603B68C046BD4602B0DC
:1005D00080BDC0460010024090B58BB000AF78607F
:1005E00014243B19180014231A00002101F076FB93
:1005F0007B681B68194A93422BD1194B9A69184B97
:10060000802189000A439A61154B9A6980239B00D7
:1006100013403B613B69124B5A69114B802189029F
:100620000A435A610E4B5A6980239B021340FB60B8
:10063000FB683B1910221A603B1903225A603B19D0
:1006400000229A603A199023DB051100180000F08F
:1006500055FDC046BD460BB090BDC04600240140CC
:100660000010024080B500AFFEE780B500AFFEE7A6
:1006700080B500AFC046BD4680BD80B500AFC04666
:10068000BD4680BD80B500AF00F07AF8C046BD46DB
:1006900080BD80B500AFC046BD4680BD0D488546D3
:1006A000FFF7F7FF0C480D490D4A002302E0D4582C
:1006B000C4500433C4188C42F9D30A4A0A4C0023AC
:1006C00001E013600432A242FBD301F0E3FAFFF72A
:1006D0001BFEFEE700200020000000200C00002090
:1006E0003C1D00080C00002074000020FEE7000004
:1006F00080B500AF074B1A68064B10210A431A60F9
:10070000032000F009F8FFF743FF00231800BD465F
:1007100080BDC0460020024090B583B000AF786035
:10072000144B1C68144B1B781900FA239800FFF730
:10073000EBFC030019002000FFF7E6FC03001800A3
:1007400000F0CFFC031E01D001230FE07B68032BD8
:100750000BD8796801235B420022180000F0ACFC42
:10076000064B7A681A60002300E001231800BD469A
:1007700003B090BD0000002008000020040000200D
:1007800080B500AF054B1B781A00054B1B68D218CB
:10079000034B1A60C046BD4680BDC046080000201D
:1007A0007000002080B500AF024B1B681800BD46EA
:1007B00080BDC0467000002080B584B000AF786076
:1007C000FFF7F0FF0300BB607B68FB60FB68013351
:1007D00005D00A4B1B781A00FB689B18FB60C046CB
:1007E000FFF7E0FF0200BB68D31AFA689A42F7D815
:1007F000C046C046BD4604B080BDC04608000020CB
:1008000080B584B000AF78600F23FB1800221A7007
:100810000023BB607B68002B01D1012325E17B68AD
:100820009B6B002B0AD17B680022DA637B68342241
:10083000002199547B681800FFF7CEFE7B689B6B04
:100840001022134000D003E10F23FB181B78002B6C
:1008500000D0FDE07B681B689B680422134000D039
:10086000F6E07B689B6B834A134002221A437B6845
:100870009A637B681B689B6803221340012B12D18B
:100880007B681B681B6801221340012B09D07B6821
:100890001B68DA6880231B021A4080231B029A42DD
:1008A00001D1012300E00023002B16D17B681B68D7
:1008B000DB681822934319007B689A687B681B6881
:1008C0000A43DA607B681B681B699B0099087B6898
:1008D0005A687B681B680A431A617B681B68DA6880
:1008E0007B681B6864490A40DA607B681B7E9A0358
:1008F0007B685B7EDB031A437B689B7E5B031A434A
:100900007B689B6A012B02D080235B0100E00023FF
:100910001A437B68DB681A437B681B69022B01D191
:10092000042300E000231A437B6824215B5C5B0006
:100930001343BA681343BB607B68DB7E012B15D180
:100940007B689B7E002B05D1BB688022520213433B
:10095000BB600BE07B689B6B20221A437B689A6329
:100960007B68DB6B01221A437B68DA637B68DA6998
:10097000C223FF339A4207D07B68DA697B681B6A1F
:100980001343BA681343BB607B681B68D9687B68F4
:100990001B68BA680A43DA607B68DA6A80235B0501
:1009A0009A421BD07B68DB6A012B17D07B68DB6A1D
:1009B000022B13D07B68DB6A032B0FD07B68DB6ACA
:1009C000042B0BD07B68DB6A052B07D07B68DB6AC6
:1009D000062B03D07B68DB6A072B12D17B681B6870
:1009E0005A697B681B6807218A435A617B681B68C8
:1009F00059697B68DB6A07221A407B681B680A43D7
:100A00005A617B681B68DB681C4A1340BA689A42CB
:100A10000BD17B680022DA637B689B6B03229343D4
:100A200001221A437B689A631CE07B689B6B12224D
:100A3000934310221A437B689A637B68DB6B012225
:100A40001A437B68DA630F23FB1801221A7009E04E
:100A50007B689B6B10221A437B689A630F23FB18F9
:100A600001221A700F23FB181B781800BD4604B032
:100A700080BDC046FDFEFFFF1902FEFFE7FF3F837A
:100A800090B585B000AF78600F23FB1800221A7074
:100A90007B681B689B680422134038D17B68342232
:100AA0009B5C012B01D1022338E07B6834220121B9
:100AB00099547B685B7E012B07D00F23FC187B6861
:100AC000180000F0E3F9030023700F23FB181B78D4
:100AD000002B20D17B689B6B124A1340802252006E
:100AE0001A437B689A637B680022DA637B6834224E
:100AF000002199547B681B681C221A607B681B6864
:100B00009A687B681B6804210A439A6003E00F23FC
:100B1000FB1802221A700F23FB181B781800BD4621
:100B200005B090BDFEF0FFFF80B584B000AF7860E7
:100B300039607B685B69082B02D10823FB6014E0F5
:100B40007B681B68DB6801221340012B0BD17B689B
:100B50009B6B20221A437B689A637B6834220021B6
:100B60009954012371E00C23FB60FFF71BFE030087
:100B7000BB601FE03B6801331CD03B68002B07D0F3
:100B8000FFF710FE0200BB68D31A3A689A4211D2EE
:100B90007B681B681B68FA6813400BD17B689B6BF2
:100BA00004221A437B689A637B683422002199549B
:100BB00003234AE07B681B681B68FA681340D9D09E
:100BC0007B689B6B802292001A437B689A637B68E8
:100BD0001B68DA68C0231B0113402DD17B689B7E04
:100BE000002B29D17B681B681B6808221340082B47
:100BF00022D17B681B689B680422134010D17B685C
:100C00001B685A687B681B680C218A435A607B68A2
:100C10009B6B104A134001221A437B689A630BE0D6
:100C20007B689B6B20221A437B689A637B68DB6B33
:100C300001221A437B68DA637B681B7E002B03D199
:100C40007B681B680C221A6000231800BD4604B0A4
:100C500080BDC046FEFEFFFF80B582B000AF786069
:100C60007B681B681B6C1800BD4602B080BD00008D
:100C700080B584B000AF786039600F23FB18002284
:100C80001A700023BB607B68DA6A80235B059A4296
:100C900011D07B68DB6A012B0DD07B68DB6A022BED
:100CA00009D07B68DB6A032B05D07B68DB6A042BE9
:100CB00001D07B68DB6A7B6834229B5C012B01D10D
:100CC0000223D0E07B683422012199547B681B68A1
:100CD0009B680422134000D0B4E03B685B68644A20
:100CE000934200D182E07B681B68996A3B681B686D
:100CF00001229A407B681B680A439A627B68DA6A21
:100D000080235B059A4237D07B68DB6A012B33D0A6
:100D10007B68DB6A022B2FD07B68DB6A032B2BD02E
:100D20007B68DB6A042B27D07B68DB6A052B23D02A
:100D30007B68DB6A062B1FD07B68DB6A072B1BD026
:100D40003B689A687B681B685B6907210B409A4285
:100D500012D07B681B685A697B681B6807218A432D
:100D60005A617B681B6859693B689B6807221A4077
:100D70007B681B680A435A613B681B68102B07D0CD
:100D80003B681B68112B03D03B681B68122B63D197
:100D9000384B19683B681B68102B09D03B681B68EF
:100DA000112B02D18023DB0304E080235B0401E0EC
:100DB00080231B042F4A0B4313603B681B68102BD6
:100DC0004AD12D4B1B682D491800FFF79DF90300F0
:100DD0001A0013009B009B185B00BB6002E0BB681D
:100DE000013BBB60BB68002BF9D135E07B681B6819
:100DF0009A6A3B681B68012199400B00D9437B68C4
:100E00001B680A409A623B681B68102B07D03B683E
:100E10001B68112B03D03B681B68122B1CD1154B90
:100E200019683B681B68102B07D03B681B68112BA7
:100E300001D1134B02E0134B00E0134B0D4A0B4062
:100E4000136009E07B689B6B20221A437B689A63DE
:100E50000F23FB1801221A707B6834220021995459
:100E60000F23FB181B781800BD4604B080BDC04698
:100E700001100000082701400000002040420F0040
:100E8000FFFFBFFFFFFFFFFEFFFF7FFF80B584B0C6
:100E900000AF78600023FB600023BB607B681B68A9
:100EA0009B6803221340012B12D17B681B681B68CF
:100EB00001221340012B09D07B681B68DA6880236C
:100EC0001B021A4080231B029A4201D1012300E039
:100ED0000023002B52D17B681B689B682A4A134071
:100EE0000DD07B689B6B10221A437B689A637B68EA
:100EF000DB6B01221A437B68DA6301233FE07B68E6
:100F00001B689A687B681B6801210A439A601F4B23
:100F10001B681F491800FFF7F7F80300BB6002E0E9
:100F2000BB68013BBB60BB68002BF9D1FFF73AFC03
:100F30000300FB601BE0FFF735FC0200FB68D31ADF
:100F4000022B14D97B681B681B6801221340012BFC
:100F50000DD07B689B6B10221A437B689A637B6879
:100F6000DB6B01221A437B68DA63012307E07B68AD
:100F70001B681B6801221340012BDCD100231800E1
:100F8000BD4604B080BDC0461700008000000020B0
:100F900040420F0090B583B000AF02003960FB1DE6
:100FA0001A70FB1D1B787F2B28D82F4AFB1D1B783E
:100FB0005BB29B08C0339B009B58FA1D127811004E
:100FC00003220A40D200FF2191400A00D2431A4076
:100FD00011003B689B01FF221A40FB1D1B78180083
:100FE00003230340DB009A401F48FB1D1B785BB2C4
:100FF0009B080A43C0339B001A5031E01B4AFB1D7B
:101000001B7819000F230B40083B9B0806339B00FD
:10101000D31804331B68FA1D1278110003220A400A
:10102000D200FF2191400A00D2431A4011003B68D0
:101030009B01FF221A40FB1D1B781800032303406D
:10104000DB009A400948FB1D1B781C000F2323403E
:10105000083B9B080A4306339B00C31804331A60FD
:10106000C046BD4603B090BD00E100E000ED00E0E9
:1010700080B582B000AF78607B685A1E80235B0425
:101080009A4201D3012310E00A4B7A68013A5A6070
:1010900001235B4203211800FFF77CFF054B002270
:1010A0009A60044B07221A6000231800BD4602B064
:1010B00080BDC04610E000E080B584B000AFB960EC
:1010C0007A600F217B18021C1A70BA687B181B7893
:1010D0005BB211001800FFF75DFFC046BD4604B0CB
:1010E00080BD80B582B000AF78607B681800FFF7E4
:1010F000BFFF03001800BD4602B080BD80B586B0BA
:1011000000AF7860396000237B614FE13B681B686A
:1011100001217A6991400A001340FB60FB68002BB3
:1011200000D140E13B685B6803221340012B05D0EE
:101130003B685B6803221340022B30D17B689B68BD
:101140003B617B695B0003229A401300DA433B69F1
:1011500013403B613B68DA687B695B009A4013008F
:101160003A6913433B617B683A699A607B685B68C4
:101170003B6101227B699A401300DA433B691340CB
:101180003B613B685B681B0901221A407B699A40FE
:1011900013003A6913433B617B683A695A603B68C4
:1011A0005B6803221340032B17D07B68DB683B612D
:1011B0007B695B0003229A401300DA433B691340CA
:1011C0003B613B689A687B695B009A4013003A690F
:1011D00013433B617B683A69DA603B685B680322D2
:1011E0001340022B23D17B69DA087B680832920016
:1011F000D3583B617B69072213409B000F229A4022
:101200001300DA433B6913403B613B681A697B6911
:1012100007210B409B009A4013003A6913433B613E
:101220007B69DA087B68083292003969D1507B68A3
:101230001B683B617B695B0003229A401300DA4321
:101240003B6913403B613B685B6803221A407B6942
:101250005B009A4013003A6913433B617B683A692B
:101260001A603B685A68C0239B02134000D19AE081
:10127000544B9A69534B01210A439A61514B9B6924
:1012800001221340BB60BB684F4A7B699B08023355
:101290009B009B583B617B69032213409B000F22FC
:1012A0009A401300DA433B6913403B617A6890230C
:1012B000DB059A4213D07B68444A93420DD07B6889
:1012C000434A934207D07B68424A934201D10323A9
:1012D00006E0052304E0022302E0012300E00023EE
:1012E0007A6903210A40920093403A6913433B61B3
:1012F00035497B699B0802339B003A695A50364B4B
:101300009B683B61FB68DA433B6913403B613B6888
:101310005A6880235B03134003D03A69FB68134388
:101320003B612D4B3A699A602B4BDB683B61FB6854
:10133000DA433B6913403B613B685A6880239B0357
:10134000134003D03A69FB6813433B61224B3A696F
:10135000DA60214B5B683B61FB68DA433B69134011
:101360003B613B685A6880239B02134003D03A6973
:10137000FB6813433B61184B3A695A60164B1B6874
:101380003B61FB68DA433B6913403B613B685A6849
:1013900080235B02134003D03A69FB6813433B612F
:1013A0000D4B3A691A607B6901337B613B681A68AF
:1013B0007B69DA40131E00D0A8E6C046C046BD4691
:1013C00006B080BD0010024000000140000400484B
:1013D00000080048000C00480004014080B582B0BD
:1013E00000AF786008001100BB1C021C1A807B1C37
:1013F0000A1C1A707B1C1B78002B04D0BB1C1A889B
:101400007B689A6103E0BB1C1A887B689A62C046BD
:10141000BD4602B080BD000080B588B000AF7860E6
:101420007B68002B01D1012301E37B681B6801224B
:10143000134000D18DE0C34B5B680C221340042B9A
:101440000ED0C04B5B680C221340082B16D1BD4B4D
:101450005A6880235B021A4080235B029A420DD1B6
:10146000B84B1A6880239B02134000D170E07B6860
:101470005B68002B00D06BE00123D8E27B685B68DF
:10148000012B07D1AF4B1A68AE4B802149020A43AA
:101490001A602FE07B685B68002B0CD1A94B1A689F
:1014A000A84BA9490A401A60A64B1A68A54BA74940
:1014B0000A401A601EE07B685B68052B0ED1A14BC9
:1014C0001A68A04B8021C9020A431A609D4B1A6812
:1014D0009C4B802149020A431A600BE0994B1A6821
:1014E000984B99490A401A60964B1A68954B974950
:1014F0000A401A607B685B68002B14D0FFF752F932
:101500000300BB6108E0FFF74DF90200BB69D31A85
:10151000642B01D903238AE28A4B1A6880239B0239
:101520001340F0D015E0FFF73DF90300BB6108E080
:10153000FFF738F90200BB69D31A642B01D90323E2
:1015400075E2804B1A6880239B021340F0D100E0C3
:10155000C0467B681B680222134000D169E0794BCA
:101560005B680C2213400BD0764B5B680C22134057
:10157000082B1CD1734B5A6880235B02134016D191
:10158000704B1B680222134005D07B68DB68012B7F
:1015900001D001234BE26B4B1B68F82293431900E7
:1015A0007B681B69DA00674B0A431A6041E07B687D
:1015B000DB68002B24D0634B1A68624B01210A437D
:1015C0001A60FFF7EFF80300BB6108E0FFF7EAF8E5
:1015D0000200BB69D31A022B01D9032327E2594B1E
:1015E0001B6802221340F1D0564B1B68F82293432C
:1015F00019007B681B69DA00524B0A431A6018E035
:10160000504B1A684F4B01218A431A60FFF7CAF802
:101610000300BB6108E0FFF7C5F80200BB69D31AFD
:10162000022B01D9032302E2464B1B68022213401E
:10163000F1D17B681B680822134036D07B68DB69D8
:10164000002B19D03F4B5A6A3E4B01210A435A6284
:10165000FFF7A8F80300BB6108E0FFF7A3F802005A
:10166000BB69D31A022B01D90323E0E1354B5B6A36
:1016700002221340F1D018E0324B5A6A314B01215B
:101680008A435A62FFF78EF80300BB6108E0FFF758
:1016900089F80200BB69D31A022B01D90323C6E1E2
:1016A000284B5B6A02221340F1D17B681B6804223D
:1016B000134000D1B4E01F203B1800221A70214BC8
:1016C000DA6980235B05134010D11E4BDA691D4B8C
:1016D000802149050A43DA611A4BDA6980235B05E8
:1016E0001340FB60FB683B1801221A70184B1A6804
:1016F00080235B0013401AD1154B1A68144B8021CC
:1017000049000A431A60FFF74DF80300BB6108E087
:10171000FFF748F80200BB69D31A642B01D90323F1
:1017200085E10B4B1A6880235B001340F0D07B6887
:101730009B68012B0ED1034B1A6A024B01210A430D
:101740001A6235E000100240FFFFFEFFFFFFFBFFC3
:10175000007000407B689B68002B0CD1B64B1A6A66
:10176000B54B01218A431A62B34B1A6AB24B04216A
:101770008A431A621CE07B689B68052B0CD1AE4B38
:101780001A6AAD4B04210A431A62AB4B1A6AAA4B80
:1017900001210A431A620BE0A74B1A6AA64B0121EA
:1017A0008A431A62A44B1A6AA34B04218A431A6221
:1017B0007B689B68002B14D0FEF7F4FF0300BB612D
:1017C00009E0FEF7EFFF0200BB69D31A9B4A934280
:1017D00001D903232BE1984B1B6A02221340F0D05E
:1017E00013E0FEF7DFFF0300BB6109E0FEF7DAFF5D
:1017F0000200BB69D31A914A934201D9032316E12F
:101800008D4B1B6A02221340F0D11F23FB181B785B
:10181000012B05D1884BDA69874B89490A40DA6187
:101820007B681B681022134063D07B685B69012BC7
:101830002AD1814B5A6B804B04210A435A637E4B59
:101840005A6B7D4B01210A435A63FEF7ABFF03003D
:10185000BB6108E0FEF7A6FF0200BB69D31A022BAA
:1018600001D90323E3E0744B5B6B02221340F1D0F8
:10187000714B5B6BF822934319007B689B69DA001C
:101880006D4B0A435A6334E07B685B69053311D1C1
:10189000694B5A6B684B04218A435A63664B5B6BF6
:1018A000F822934319007B689B69DA00624B0A4374
:1018B0005A631EE0604B5A6B5F4B04210A435A6324
:1018C0005D4B5A6B5C4B01218A435A63FEF76AFFFA
:1018D0000300BB6108E0FEF765FF0200BB69D31A95
:1018E000022B01D90323A2E0534B5B6B022213406E
:1018F000F1D17B681B6A002B00D197E04E4B5B68EF
:101900000C221340082B00D16BE07B681B6A022B72
:101910004CD1494B1A68484B4A490A401A60FEF7B5
:1019200041FF0300BB6108E0FEF73CFF0200BB691A
:10193000D31A022B01D9032379E03F4B1A68802385
:101940009B041340F0D13C4BDB6A0F2293431900F8
:101950007B68DA6A384B0A43DA62374B5B683A4A8B
:10196000134019007B689A6A7B685B6A1A43324BA2
:101970000A435A60304B1A682F4B802149040A43AE
:101980001A60FEF70FFF0300BB6108E0FEF70AFFD5
:101990000200BB69D31A022B01D9032347E0264B6F
:1019A0001A6880239B041340F0D03FE0224B1A6852
:1019B000214B24490A401A60FEF7F4FE0300BB6184
:1019C00008E0FEF7EFFE0200BB69D31A022B01D933
:1019D00003232CE0184B1A6880239B041340F0D19A
:1019E00024E07B681B6A012B01D101231FE0124B0D
:1019F0005B687B61104BDB6A3B617A6980235B0229
:101A00001A407B685B6A9A420ED13B690F221A40EA
:101A10007B68DB6A9A4207D17A69F0239B031A40FC
:101A20007B689B6A9A4201D0012300E000231800E2
:101A3000BD4608B080BDC0460010024088130000BB
:101A4000FFFFFFEFFFFFFFFEFFFFC2FF80B584B087
:101A500000AF786039607B68002B01D10123B3E0CF
:101A60005B4B1B68012213403A689A4211D9584BCC
:101A70001B68012293431900554B3A680A431A60C8
:101A8000534B1B68012213403A689A4201D001234C
:101A90009AE07B681B680222134015D07B681B68A4
:101AA0000422134006D04B4B5A684A4BE021C90030
:101AB0000A435A60474B5B68F022934319007B68E6
:101AC0009A68444B0A435A607B681B6801221340A2
:101AD00040D07B685B68012B07D13E4B1A6880239E
:101AE0009B02134014D101236EE07B685B68022BDC
:101AF00007D1384B1A6880239B04134008D1012377
:101B000062E0344B1B680222134001D101235BE0E9
:101B1000304B5B680322934319007B685A682D4B56
:101B20000A435A60FEF73EFE0300FB6009E0FEF741
:101B300039FE0200FB68D31A274A934201D90323D6
:101B400042E0244B5B680C221A407B685B689B0078
:101B50009A42ECD11E4B1B68012213403A689A420C
:101B600011D21B4B1B68012293431900184B3A6892
:101B70000A431A60164B1B68012213403A689A42C6
:101B800001D0012320E07B681B680422134009D0A8
:101B9000104B5B68114A134019007B68DA680D4BE3
:101BA0000A435A6000F020F801000A4B5B681B09E9
:101BB0000F2213400A4AD35C0A00DA40094B1A602C
:101BC0000320FEF7A9FD00231800BD4604B080BD28
:101BD000002002400010024088130000FFF8FFFFC1
:101BE000041D00080000002080B586B000AF00236F
:101BF000FB600023BB6000237B6100237B6000232C
:101C00003B61204B5B68FB60FB680C221340042B9C
:101C100002D0082B03D02CE01B4B3B612CE0FB686F
:101C20009B0C0F221340194AD35C7B60154BDB6A77
:101C30000F221340164AD35CBB60FA6880235B0214
:101C4000134009D0B9681048FEF75EFA03001A0085
:101C50007B6853437B6109E079680A005201521A9C
:101C600093019B1ADB005B181B027B617B693B6164
:101C700002E0054B3B61C0463B691800BD4606B01B
:101C800080BDC0460010024000127A00141D0008FA
:101C9000241D000870B500260C4D0D4C641BA410CB
:101CA000A64209D1002600F021F80A4D0A4C641B17
:101CB000A410A64205D170BDB300EB589847013679
:101CC000EEE7B300EB5898470136F2E7341D000801
:101CD000341D0008341D0008381D00080300821858
:101CE000934200D1704719700133F9E7F8B5C04647
:101CF000F8BC08BC9E467047F8B5C046F8BC08BCA6
:041D00009E46704744
:101D040000000000000000000102030406070809A7
:101D140002030405060708090A0B0C0D0E0F101028
:101D24000102030405060708090A0B0C0D0E0F1027
:041D3400E9000008BA
:041D3800C1000008DE
:0C1D3C0000127A0004000000010000000A
:040000050800069D4C
:00000001FF
